:100000000C945D000C9485000C9485000C94850084
:100010000C9485000C9485000C9485000C9485004C
:100020000C9485000C9485000C9485000C9485003C
:100030000C9485000C9485000C9485000C9485002C
:100040000C94CC020C9485000C949A020C947402CB
:100050000C9485000C9485000C9485000C9485000C
:100060000C9485000C94850000000008000201003B
:100070000003040700000000000000000000000072
:10008000250028002B0000000000240027002A0083
:10009000040404040404040402020202020203032E
:1000A0000303030301020408102040800102040836
:1000B0001020010204081020DD0411241FBECFEF20
:1000C000D8E0DEBFCDBF12E0A0E0B1E0E4E2FAE0AC
:1000D00002C005900D92A234B107D9F722E0A2E444
:1000E000B2E001C01D92AC3FB207E1F710E0CDE5F0
:1000F000D0E004C02197FE010E940A05CC35D1074B
:10010000C9F70E9416030C9410050C94000090E0AF
:10011000FC01EC55FF4F249180579F4FFC018491C7
:10012000882399F090E0880F991FFC01EA57FF4F50
:10013000A591B491FC01E458FF4F859194918FB73C
:10014000F894EC91E22BEC938FBF0895AF92BF929D
:10015000CF92DF92EF92FF920F931F93CF93DF9393
:100160006C017B018B01040F151FEB015E01AE18C2
:10017000BF08C017D10759F06991D601ED91FC91E4
:100180000190F081E02DC6010995892B79F7C50111
:10019000DF91CF911F910F91FF90EF90DF90CF9063
:1001A000BF90AF900895FC01538D448D252F30E012
:1001B000842F90E0821B930B541710F0CF96089574
:1001C00001970895FC01918D828D981761F0A28DA1
:1001D000AE0FBF2FB11D5D968C91928D9F5F9F7367
:1001E000928F90E008958FEF9FEF0895FC01918D1D
:1001F000828D981731F0828DE80FF11D858D90E08A
:1002000008958FEF9FEF0895FC01918D228D892F26
:1002100090E0805C9F4F821B91098F73992708950E
:100220008FE592E00E94040121E0892B09F420E08F
:10023000822F089580E090E0892B29F00E94100120
:1002400081110C9400000895FC01A48DA80FB92F12
:10025000B11DA35ABF4F2C91848D90E001968F73EE
:100260009927848FA689B7892C93A089B1898C910D
:10027000837080648C93938D848D981306C002885C
:10028000F389E02D80818F7D80830895EF92FF9226
:100290000F931F93CF93DF93EC0181E0888F9B8DA9
:1002A0008C8D98131AC0E889F989808185FF15C063
:1002B0009FB7F894EE89FF896083E889F989808186
:1002C0008370806480839FBF81E090E0DF91CF9155
:1002D0001F910F91FF90EF900895F62E0B8D10E077
:1002E0000F5F1F4F0F731127E02E8C8D8E110CC0E6
:1002F0000FB607FCFACFE889F989808185FFF5CF31
:10030000CE010E942401F1CFEB8DEC0FFD2FF11DEA
:10031000E35AFF4FF0829FB7F8940B8FEA89FB896D
:1003200080818062CFCFCF93DF93EC01888D8823CB
:10033000B9F0AA89BB89E889F9898C9185FD03C048
:10034000808186FD0DC00FB607FCF7CF8C9185FF2D
:10035000F2CF808185FFEDCFCE010E942401E9CF4D
:10036000DF91CF91089590E0FC01E859FF4F24916F
:10037000FC01EC55FF4F3491FC01E057FF4FE49135
:10038000EE23C9F0222339F0233001F1A8F4213003
:1003900019F1223029F1F0E0EE0FFF1FE458FF4F72
:1003A000A591B4918FB7F894EC91611126C0309566
:1003B0003E233C938FBF08952730A9F02830C9F021
:1003C000243049F7809180008F7D03C080918000A8
:1003D0008F7780938000DFCF84B58F7784BDDBCFAC
:1003E00084B58F7DFBCF8091B0008F778093B00074
:1003F000D2CF8091B0008F7DF9CF3E2BDACF3FB7BF
:10040000F8948091470290914802A0914902B091DE
:100410004A0226B5A89B05C02F3F19F00196A11DE1
:10042000B11D3FBFBA2FA92F982F8827BC01CD013E
:10043000620F711D811D911D42E0660F771F881F9D
:10044000991F4A95D1F708958F929F92AF92BF92CC
:10045000CF92DF92EF92FF926B017C010E94FF012D
:100460004B015C01C114D104E104F104B9F00E9414
:10047000FF01681979098A099B09683E7340810563
:10048000910580F321E0C21AD108E108F10888EE55
:10049000880E83E0981EA11CB11CE4CFFF90EF9062
:1004A000DF90CF90BF90AF909F908F900895CF93A3
:1004B000DF93FC0101900020E9F73197AF01481B61
:1004C000590BBC018FE592E00E94A600EC0142E0CE
:1004D00050E062E171E08FE592E00E94A6008C0F8F
:1004E0009D1FDF91CF9108951F920F920FB60F922B
:1004F00011242F933F934F935F936F937F938F9329
:100500009F93AF93BF93EF93FF938FE592E00E9489
:100510002401FF91EF91BF91AF919F918F917F91B6
:100520006F915F914F913F912F910F900FBE0F9060
:100530001F9018951F920F920FB60F9211242F93B0
:100540008F939F93EF93FF93E0916F02F09170026E
:100550008081E0917502F091760282FD1BC090814E
:10056000809178028F5F8F7320917902821741F01A
:10057000E0917802F0E0E15AFD4F958F8093780288
:10058000FF91EF919F918F912F910F900FBE0F9040
:100590001F9018958081F4CF1F920F920FB60F9283
:1005A00011242F933F938F939F93AF93BF93809189
:1005B000430290914402A0914502B09146023091CD
:1005C000420223E0230F2D3758F50196A11DB11DDE
:1005D000209342028093430290934402A0934502E9
:1005E000B09346028091470290914802A09149023F
:1005F000B0914A020196A11DB11D809347029093CC
:100600004802A0934902B0934A02BF91AF919F91D3
:100610008F913F912F910F900FBE0F901F901895C3
:1006200026E8230F0296A11DB11DD2CF789484B580
:10063000826084BD84B5816084BD85B5826085BDDE
:1006400085B5816085BD80916E00816080936E006C
:10065000109281008091810082608093810080915E
:10066000810081608093810080918000816080930F
:1006700080008091B10084608093B1008091B000CF
:1006800081608093B00080917A00846080937A00CA
:1006900080917A00826080937A0080917A008160F4
:1006A00080937A0080917A00806880937A0010921B
:1006B000C100E0916F02F091700282E08083E091CE
:1006C0006B02F0916C021082E0916D02F0916E026B
:1006D0008FEC808310927702E0917302F0917402A4
:1006E00086E08083E0917102F091720280818061E6
:1006F0008083E0917102F091720280818860808332
:10070000E0917102F0917202808180688083E091B3
:100710007102F091720280818F7D808385E00E945A
:10072000870086E00E94870087E00E94870088E0BB
:100730000E94870010924F021092500210925102B4
:100740001092520288EE93E0A0E0B0E080934B025A
:1007500090934C02A0934D02B0934E0280EA9FE02A
:10076000A0E0B0E080935B0290935C02A0935D02F6
:10077000B0935E0282EC91E0A0E0B0E0809357027B
:1007800090935802A0935902B0935A028CEB92E0D6
:10079000A0E0B0E08093530290935402A0935502DE
:1007A000B093560285E191E00E94570261E085E036
:1007B0000E94B301C0904F02D0905002E0905102CD
:1007C000F0905202C701B6010E94240261E086E067
:1007D0000E94B301C701B6010E94240261E087E0D4
:1007E0000E94B301C701B6010E94240289E291E090
:1007F0000E94570260914F02709150028091510205
:10080000909152020E94240285E191E00E945702D9
:1008100061E085E00E94B30161E086E00E94B301DF
:1008200061E087E00E94B30160914B0270914C023D
:1008300080914D0290914E020E9424028CE491E03E
:100840000E94570260914F027091500280915102B4
:10085000909152020E94240261E088E00E94B3015C
:1008600080E691E00E945702C0E0D0E080E791E08E
:100870000E94570261E085E00E94B30160E086E0DB
:100880000E94B30160E087E00E94B30160915B02C7
:1008900070915C0280915D0290915E020E94240240
:1008A0008FE891E00E94570261E085E00E94B30169
:1008B00060E086E00E94B30161E087E00E94B3013E
:1008C00060915702709158028091590290915A029A
:1008D0000E94240280EC91E00E94570261E085E0D2
:1008E0000E94B30161E086E00E94B30161E087E00D
:1008F0000E94B3016091530270915402809155029D
:10090000909156020E94240282EF91E00E945702C9
:1009100060E085E00E94B30161E086E00E94B301DF
:1009200060E087E00E94B30160915B0270915C021D
:1009300080915D0290915E020E94240281E192E02A
:100940000E94570260E085E00E94B30161E086E00A
:100950000E94B30161E087E00E94B30160915702F9
:10096000709158028091590290915A020E9424027B
:1009700080EC91E00E94570261E085E00E94B301A3
:1009800061E086E00E94B30161E087E00E94B3016C
:1009900060915302709154028091550290915602D9
:1009A0000E942402209709F461CF0E94100188233D
:1009B00009F45CCF0E94000059CFEFE5F2E013820A
:1009C000128288EE93E0A0E0B0E084839583A68352
:1009D000B78384E091E09183808385EC90E09587F4
:1009E000848784EC90E09787868780EC90E0918BF9
:1009F000808B81EC90E0938B828B82EC90E0958BE6
:100A0000848B86EC90E0978B868B118E128E138EE2
:100A1000148E0895EE0FFF1F0590F491E02D0994B8
:040A2000F894FFCF78
:100A2400000000004601A600D30093010401E20087
:100A3400F6000D0A0052656C6179205465737420C8
:100A440053657175656E63650056616C76652052F9
:100A5400656C617920546573742053657175656E96
:100A6400636520436F6D706C6574650050726F67C9
:100A740072616D205374617274696E672E2E2E003C
:100A840046616E205377697463686564204F6E0015
:100A94005369657665204120436861726765202F3C
:100AA400205369657665204220507572676500534E
:100AB40069657665204120436861726765202F204F
:100AC40053696576652042205075726765202F2032
:100AD400466C7573682F5072654368617267650070
:100AE4005369657665204120436861726765202FEC
:100AF40020536965766520422043686172676520EA
:100B04002F20466C7573682F507265436861726755
:100B140065005369657665204120507572676520CC
:100B24002F205369657665204220436861726765AA
:100B34000053696576652041205075726765202FE2
:100B44002053696576652042204368617267652099
:100B54002F20466C7573682F507265436861726705
:020B640065002A
:00000001FF
